{
  "_format": "hh-sol-artifact-1",
  "contractName": "MSIA",
  "sourceName": "contracts/MSIA.sol",
  "abi": [
    {
      "inputs": [
        {
          "internalType": "address",
          "name": "initialOwner",
          "type": "address"
        }
      ],
      "stateMutability": "nonpayable",
      "type": "constructor"
    },
    {
      "inputs": [
        {
          "internalType": "address",
          "name": "owner",
          "type": "address"
        }
      ],
      "name": "OwnableInvalidOwner",
      "type": "error"
    },
    {
      "inputs": [
        {
          "internalType": "address",
          "name": "account",
          "type": "address"
        }
      ],
      "name": "OwnableUnauthorizedAccount",
      "type": "error"
    },
    {
      "inputs": [],
      "name": "ReentrancyGuardReentrantCall",
      "type": "error"
    },
    {
      "anonymous": false,
      "inputs": [
        {
          "indexed": true,
          "internalType": "uint256",
          "name": "roomId",
          "type": "uint256"
        },
        {
          "indexed": false,
          "internalType": "uint256",
          "name": "artId",
          "type": "uint256"
        },
        {
          "indexed": false,
          "internalType": "string",
          "name": "artName",
          "type": "string"
        }
      ],
      "name": "ArtAdded",
      "type": "event"
    },
    {
      "anonymous": false,
      "inputs": [
        {
          "indexed": false,
          "internalType": "address",
          "name": "owner",
          "type": "address"
        },
        {
          "indexed": false,
          "internalType": "uint256",
          "name": "amount",
          "type": "uint256"
        }
      ],
      "name": "EarningsWithdrawn",
      "type": "event"
    },
    {
      "anonymous": false,
      "inputs": [
        {
          "indexed": true,
          "internalType": "address",
          "name": "previousOwner",
          "type": "address"
        },
        {
          "indexed": true,
          "internalType": "address",
          "name": "newOwner",
          "type": "address"
        }
      ],
      "name": "OwnershipTransferred",
      "type": "event"
    },
    {
      "anonymous": false,
      "inputs": [
        {
          "indexed": true,
          "internalType": "uint256",
          "name": "roomId",
          "type": "uint256"
        },
        {
          "indexed": false,
          "internalType": "string",
          "name": "roomName",
          "type": "string"
        },
        {
          "indexed": false,
          "internalType": "address",
          "name": "owner",
          "type": "address"
        }
      ],
      "name": "RoomCreated",
      "type": "event"
    },
    {
      "anonymous": false,
      "inputs": [
        {
          "indexed": true,
          "internalType": "uint256",
          "name": "roomId",
          "type": "uint256"
        },
        {
          "indexed": false,
          "internalType": "address",
          "name": "visitor",
          "type": "address"
        }
      ],
      "name": "RoomVisited",
      "type": "event"
    },
    {
      "inputs": [
        {
          "internalType": "uint256",
          "name": "_roomId",
          "type": "uint256"
        },
        {
          "internalType": "string",
          "name": "_artName",
          "type": "string"
        },
        {
          "internalType": "string",
          "name": "_artCID",
          "type": "string"
        },
        {
          "internalType": "string",
          "name": "_artSoundCID",
          "type": "string"
        }
      ],
      "name": "addArt",
      "outputs": [],
      "stateMutability": "nonpayable",
      "type": "function"
    },
    {
      "inputs": [
        {
          "internalType": "string",
          "name": "_roomName",
          "type": "string"
        },
        {
          "internalType": "string",
          "name": "_galleryImageProfile",
          "type": "string"
        },
        {
          "internalType": "uint256",
          "name": "_entryFee",
          "type": "uint256"
        }
      ],
      "name": "createRoom",
      "outputs": [],
      "stateMutability": "nonpayable",
      "type": "function"
    },
    {
      "inputs": [],
      "name": "getAllRooms",
      "outputs": [
        {
          "components": [
            {
              "internalType": "uint256",
              "name": "roomId",
              "type": "uint256"
            },
            {
              "internalType": "string",
              "name": "roomName",
              "type": "string"
            },
            {
              "internalType": "uint128",
              "name": "visitors",
              "type": "uint128"
            },
            {
              "internalType": "string",
              "name": "galleryImageProfile",
              "type": "string"
            },
            {
              "internalType": "uint256",
              "name": "entryFee",
              "type": "uint256"
            },
            {
              "internalType": "address payable",
              "name": "owner",
              "type": "address"
            },
            {
              "internalType": "uint256",
              "name": "createdAt",
              "type": "uint256"
            },
            {
              "internalType": "uint256",
              "name": "earnings",
              "type": "uint256"
            },
            {
              "components": [
                {
                  "internalType": "uint256",
                  "name": "artId",
                  "type": "uint256"
                },
                {
                  "internalType": "string",
                  "name": "artName",
                  "type": "string"
                },
                {
                  "internalType": "uint256",
                  "name": "artNumber",
                  "type": "uint256"
                },
                {
                  "internalType": "string",
                  "name": "artCID",
                  "type": "string"
                },
                {
                  "internalType": "string",
                  "name": "artSoundCID",
                  "type": "string"
                }
              ],
              "internalType": "struct MSIA.Art[]",
              "name": "arts",
              "type": "tuple[]"
            }
          ],
          "internalType": "struct MSIA.Room[]",
          "name": "",
          "type": "tuple[]"
        }
      ],
      "stateMutability": "view",
      "type": "function"
    },
    {
      "inputs": [
        {
          "internalType": "uint256",
          "name": "_roomId",
          "type": "uint256"
        }
      ],
      "name": "getArtsInRoom",
      "outputs": [
        {
          "components": [
            {
              "internalType": "uint256",
              "name": "artId",
              "type": "uint256"
            },
            {
              "internalType": "string",
              "name": "artName",
              "type": "string"
            },
            {
              "internalType": "uint256",
              "name": "artNumber",
              "type": "uint256"
            },
            {
              "internalType": "string",
              "name": "artCID",
              "type": "string"
            },
            {
              "internalType": "string",
              "name": "artSoundCID",
              "type": "string"
            }
          ],
          "internalType": "struct MSIA.Art[]",
          "name": "",
          "type": "tuple[]"
        }
      ],
      "stateMutability": "view",
      "type": "function"
    },
    {
      "inputs": [
        {
          "internalType": "uint256",
          "name": "_roomId",
          "type": "uint256"
        }
      ],
      "name": "getRoomDetails",
      "outputs": [
        {
          "internalType": "string",
          "name": "roomName",
          "type": "string"
        },
        {
          "internalType": "uint128",
          "name": "visitors",
          "type": "uint128"
        },
        {
          "internalType": "string",
          "name": "galleryImageProfile",
          "type": "string"
        },
        {
          "internalType": "uint256",
          "name": "entryFee",
          "type": "uint256"
        },
        {
          "internalType": "address",
          "name": "owner",
          "type": "address"
        },
        {
          "internalType": "uint256",
          "name": "createdAt",
          "type": "uint256"
        }
      ],
      "stateMutability": "view",
      "type": "function"
    },
    {
      "inputs": [],
      "name": "owner",
      "outputs": [
        {
          "internalType": "address",
          "name": "",
          "type": "address"
        }
      ],
      "stateMutability": "view",
      "type": "function"
    },
    {
      "inputs": [],
      "name": "renounceOwnership",
      "outputs": [],
      "stateMutability": "nonpayable",
      "type": "function"
    },
    {
      "inputs": [
        {
          "internalType": "uint256",
          "name": "",
          "type": "uint256"
        }
      ],
      "name": "roomIdToRoom",
      "outputs": [
        {
          "internalType": "uint256",
          "name": "roomId",
          "type": "uint256"
        },
        {
          "internalType": "string",
          "name": "roomName",
          "type": "string"
        },
        {
          "internalType": "uint128",
          "name": "visitors",
          "type": "uint128"
        },
        {
          "internalType": "string",
          "name": "galleryImageProfile",
          "type": "string"
        },
        {
          "internalType": "uint256",
          "name": "entryFee",
          "type": "uint256"
        },
        {
          "internalType": "address payable",
          "name": "owner",
          "type": "address"
        },
        {
          "internalType": "uint256",
          "name": "createdAt",
          "type": "uint256"
        },
        {
          "internalType": "uint256",
          "name": "earnings",
          "type": "uint256"
        }
      ],
      "stateMutability": "view",
      "type": "function"
    },
    {
      "inputs": [
        {
          "internalType": "uint256",
          "name": "",
          "type": "uint256"
        }
      ],
      "name": "rooms",
      "outputs": [
        {
          "internalType": "uint256",
          "name": "roomId",
          "type": "uint256"
        },
        {
          "internalType": "string",
          "name": "roomName",
          "type": "string"
        },
        {
          "internalType": "uint128",
          "name": "visitors",
          "type": "uint128"
        },
        {
          "internalType": "string",
          "name": "galleryImageProfile",
          "type": "string"
        },
        {
          "internalType": "uint256",
          "name": "entryFee",
          "type": "uint256"
        },
        {
          "internalType": "address payable",
          "name": "owner",
          "type": "address"
        },
        {
          "internalType": "uint256",
          "name": "createdAt",
          "type": "uint256"
        },
        {
          "internalType": "uint256",
          "name": "earnings",
          "type": "uint256"
        }
      ],
      "stateMutability": "view",
      "type": "function"
    },
    {
      "inputs": [
        {
          "internalType": "address",
          "name": "newOwner",
          "type": "address"
        }
      ],
      "name": "transferOwnership",
      "outputs": [],
      "stateMutability": "nonpayable",
      "type": "function"
    },
    {
      "inputs": [
        {
          "internalType": "uint256",
          "name": "_roomId",
          "type": "uint256"
        }
      ],
      "name": "visitRoom",
      "outputs": [],
      "stateMutability": "payable",
      "type": "function"
    },
    {
      "inputs": [
        {
          "internalType": "uint256",
          "name": "_roomId",
          "type": "uint256"
        }
      ],
      "name": "withdrawEarnings",
      "outputs": [],
      "stateMutability": "nonpayable",
      "type": "function"
    }
  ],
  "bytecode": "0x60806040523480156200001157600080fd5b5060405162002dd838038062002dd88339818101604052810190620000379190620001fe565b806001600081905550600073ffffffffffffffffffffffffffffffffffffffff168173ffffffffffffffffffffffffffffffffffffffff1603620000b55760006040517f1e4fbdf7000000000000000000000000000000000000000000000000000000008152600401620000ac919062000241565b60405180910390fd5b620000c681620000ce60201b60201c565b50506200025e565b6000600160009054906101000a900473ffffffffffffffffffffffffffffffffffffffff16905081600160006101000a81548173ffffffffffffffffffffffffffffffffffffffff021916908373ffffffffffffffffffffffffffffffffffffffff1602179055508173ffffffffffffffffffffffffffffffffffffffff168173ffffffffffffffffffffffffffffffffffffffff167f8be0079c531659141344cd1fd0a4f28419497f9722a3daafe3b4186f6b6457e060405160405180910390a35050565b600080fd5b600073ffffffffffffffffffffffffffffffffffffffff82169050919050565b6000620001c68262000199565b9050919050565b620001d881620001b9565b8114620001e457600080fd5b50565b600081519050620001f881620001cd565b92915050565b60006020828403121562000217576200021662000194565b5b60006200022784828501620001e7565b91505092915050565b6200023b81620001b9565b82525050565b600060208201905062000258600083018462000230565b92915050565b612b6a806200026e6000396000f3fe6080604052600436106100a75760003560e01c8063560506681161006457806356050668146102055780636e70096e14610221578063715018a61461024a5780638da5cb5b14610261578063f2fde38b1461028c578063f794cf2d146102b5576100a7565b806311542c72146100ac5780631bae0ac8146100e9578063294550de1461012d57806332790cc61461016f57806332ffe0e1146101b35780633a85e6fe146101dc575b600080fd5b3480156100b857600080fd5b506100d360048036038101906100ce9190611a41565b6102e0565b6040516100e09190611c53565b60405180910390f35b3480156100f557600080fd5b50610110600480360381019061010b9190611a41565b61051f565b604051610124989796959493929190611d3a565b60405180910390f35b34801561013957600080fd5b50610154600480360381019061014f9190611a41565b6106c3565b60405161016696959493929190611de7565b60405180910390f35b34801561017b57600080fd5b5061019660048036038101906101919190611a41565b61086a565b6040516101aa989796959493929190611d3a565b60405180910390f35b3480156101bf57600080fd5b506101da60048036038101906101d59190611f8b565b6109fe565b005b3480156101e857600080fd5b5061020360048036038101906101fe9190612016565b610c81565b005b61021f600480360381019061021a9190611a41565b610e54565b005b34801561022d57600080fd5b5061024860048036038101906102439190611a41565b610f9c565b005b34801561025657600080fd5b5061025f6111ba565b005b34801561026d57600080fd5b506102766111ce565b60405161028391906120d1565b60405180910390f35b34801561029857600080fd5b506102b360048036038101906102ae9190612118565b6111f8565b005b3480156102c157600080fd5b506102ca61127e565b6040516102d7919061237e565b60405180910390f35b606060036000838152602001908152602001600020600801805480602002602001604051908101604052809291908181526020016000905b8282101561051457838290600052602060002090600502016040518060a001604052908160008201548152602001600182018054610355906123cf565b80601f0160208091040260200160405190810160405280929190818152602001828054610381906123cf565b80156103ce5780601f106103a3576101008083540402835291602001916103ce565b820191906000526020600020905b8154815290600101906020018083116103b157829003601f168201915b50505050508152602001600282015481526020016003820180546103f1906123cf565b80601f016020809104026020016040519081016040528092919081815260200182805461041d906123cf565b801561046a5780601f1061043f5761010080835404028352916020019161046a565b820191906000526020600020905b81548152906001019060200180831161044d57829003601f168201915b50505050508152602001600482018054610483906123cf565b80601f01602080910402602001604051908101604052809291908181526020018280546104af906123cf565b80156104fc5780601f106104d1576101008083540402835291602001916104fc565b820191906000526020600020905b8154815290600101906020018083116104df57829003601f168201915b50505050508152505081526020019060010190610318565b505050509050919050565b6002818154811061052f57600080fd5b9060005260206000209060090201600091509050806000015490806001018054610558906123cf565b80601f0160208091040260200160405190810160405280929190818152602001828054610584906123cf565b80156105d15780601f106105a6576101008083540402835291602001916105d1565b820191906000526020600020905b8154815290600101906020018083116105b457829003601f168201915b5050505050908060020160009054906101000a90046fffffffffffffffffffffffffffffffff1690806003018054610608906123cf565b80601f0160208091040260200160405190810160405280929190818152602001828054610634906123cf565b80156106815780601f1061065657610100808354040283529160200191610681565b820191906000526020600020905b81548152906001019060200180831161066457829003601f168201915b5050505050908060040154908060050160009054906101000a900473ffffffffffffffffffffffffffffffffffffffff16908060060154908060070154905088565b606060006060600080600080600360008981526020019081526020016000209050806001018160020160009054906101000a90046fffffffffffffffffffffffffffffffff168260030183600401548460050160009054906101000a900473ffffffffffffffffffffffffffffffffffffffff168560060154858054610748906123cf565b80601f0160208091040260200160405190810160405280929190818152602001828054610774906123cf565b80156107c15780601f10610796576101008083540402835291602001916107c1565b820191906000526020600020905b8154815290600101906020018083116107a457829003601f168201915b505050505095508380546107d4906123cf565b80601f0160208091040260200160405190810160405280929190818152602001828054610800906123cf565b801561084d5780601f106108225761010080835404028352916020019161084d565b820191906000526020600020905b81548152906001019060200180831161083057829003601f168201915b505050505093509650965096509650965096505091939550919395565b6003602052806000526040600020600091509050806000015490806001018054610893906123cf565b80601f01602080910402602001604051908101604052809291908181526020018280546108bf906123cf565b801561090c5780601f106108e15761010080835404028352916020019161090c565b820191906000526020600020905b8154815290600101906020018083116108ef57829003601f168201915b5050505050908060020160009054906101000a90046fffffffffffffffffffffffffffffffff1690806003018054610943906123cf565b80601f016020809104026020016040519081016040528092919081815260200182805461096f906123cf565b80156109bc5780601f10610991576101008083540402835291602001916109bc565b820191906000526020600020905b81548152906001019060200180831161099f57829003601f168201915b5050505050908060040154908060050160009054906101000a900473ffffffffffffffffffffffffffffffffffffffff16908060060154908060070154905088565b60006002805490509050600060036000838152602001908152602001600020905081816000018190555084816001019081610a3991906125ac565b5083816003019081610a4b91906125ac565b50828160040181905550338160050160006101000a81548173ffffffffffffffffffffffffffffffffffffffff021916908373ffffffffffffffffffffffffffffffffffffffff16021790555042816006018190555060008160020160006101000a8154816fffffffffffffffffffffffffffffffff02191690836fffffffffffffffffffffffffffffffff1602179055506000816007018190555060028190806001815401808255809150506001900390600052602060002090600902016000909190919091506000820154816000015560018201816001019081610b319190612694565b506002820160009054906101000a90046fffffffffffffffffffffffffffffffff168160020160006101000a8154816fffffffffffffffffffffffffffffffff02191690836fffffffffffffffffffffffffffffffff16021790555060038201816003019081610ba19190612694565b50600482015481600401556005820160009054906101000a900473ffffffffffffffffffffffffffffffffffffffff168160050160006101000a81548173ffffffffffffffffffffffffffffffffffffffff021916908373ffffffffffffffffffffffffffffffffffffffff16021790555060068201548160060155600782015481600701556008820181600801908054610c3d929190611898565b505050817f9a658b74d50d3a24b6621fae25f87f046bab19ad7b3dc633600ac2f592b760ce8633604051610c7292919061277c565b60405180910390a25050505050565b6003600085815260200190815260200160002060050160009054906101000a900473ffffffffffffffffffffffffffffffffffffffff1673ffffffffffffffffffffffffffffffffffffffff163373ffffffffffffffffffffffffffffffffffffffff1614610d25576040517f08c379a0000000000000000000000000000000000000000000000000000000008152600401610d1c906127f8565b60405180910390fd5b600060016003600087815260200190815260200160002060080180549050610d4d9190612847565b905060006040518060a0016040528083815260200186815260200183815260200185815260200184815250905060036000878152602001908152602001600020600801819080600181540180825580915050600190039060005260206000209060050201600090919091909150600082015181600001556020820151816001019081610dd991906125ac565b50604082015181600201556060820151816003019081610df991906125ac565b506080820151816004019081610e0f91906125ac565b505050857f23e6a1312ea7dbfc5dcd478548ed92cab9806944ccd727cb3e38f421d1f2506f8387604051610e4492919061287b565b60405180910390a2505050505050565b610e5c6116f3565b60036000828152602001908152602001600020600401543414610eb4576040517f08c379a0000000000000000000000000000000000000000000000000000000008152600401610eab906128f7565b60405180910390fd5b60016003600083815260200190815260200160002060020160008282829054906101000a90046fffffffffffffffffffffffffffffffff16610ef69190612917565b92506101000a8154816fffffffffffffffffffffffffffffffff02191690836fffffffffffffffffffffffffffffffff16021790555034600360008381526020019081526020016000206007016000828254610f529190612847565b92505081905550807fe83fb8f3b2a7b82522ac4cae185ed8b6b113dc0a75c69de9010f4b3d5b370e1833604051610f8991906120d1565b60405180910390a2610f99611739565b50565b610fa46116f3565b60006003600083815260200190815260200160002090508060050160009054906101000a900473ffffffffffffffffffffffffffffffffffffffff1673ffffffffffffffffffffffffffffffffffffffff163373ffffffffffffffffffffffffffffffffffffffff161461104d576040517f08c379a0000000000000000000000000000000000000000000000000000000008152600401611044906129cd565b60405180910390fd5b60008160070154905060008111611099576040517f08c379a000000000000000000000000000000000000000000000000000000000815260040161109090612a39565b60405180910390fd5b6000826007018190555060008260050160009054906101000a900473ffffffffffffffffffffffffffffffffffffffff1673ffffffffffffffffffffffffffffffffffffffff16826040516110ed90612a8a565b60006040518083038185875af1925050503d806000811461112a576040519150601f19603f3d011682016040523d82523d6000602084013e61112f565b606091505b5050905080611173576040517f08c379a000000000000000000000000000000000000000000000000000000000815260040161116a90612aeb565b60405180910390fd5b7f48dc35af7b45e2a81fffad55f6e2fafacdb1d3d0d50d24ebdc16324f5ba757f133836040516111a4929190612b0b565b60405180910390a15050506111b7611739565b50565b6111c2611743565b6111cc60006117ca565b565b6000600160009054906101000a900473ffffffffffffffffffffffffffffffffffffffff16905090565b611200611743565b600073ffffffffffffffffffffffffffffffffffffffff168173ffffffffffffffffffffffffffffffffffffffff16036112725760006040517f1e4fbdf700000000000000000000000000000000000000000000000000000000815260040161126991906120d1565b60405180910390fd5b61127b816117ca565b50565b60606002805480602002602001604051908101604052809291908181526020016000905b828210156116ea578382906000526020600020906009020160405180610120016040529081600082015481526020016001820180546112e0906123cf565b80601f016020809104026020016040519081016040528092919081815260200182805461130c906123cf565b80156113595780601f1061132e57610100808354040283529160200191611359565b820191906000526020600020905b81548152906001019060200180831161133c57829003601f168201915b505050505081526020016002820160009054906101000a90046fffffffffffffffffffffffffffffffff166fffffffffffffffffffffffffffffffff166fffffffffffffffffffffffffffffffff1681526020016003820180546113bc906123cf565b80601f01602080910402602001604051908101604052809291908181526020018280546113e8906123cf565b80156114355780601f1061140a57610100808354040283529160200191611435565b820191906000526020600020905b81548152906001019060200180831161141857829003601f168201915b50505050508152602001600482015481526020016005820160009054906101000a900473ffffffffffffffffffffffffffffffffffffffff1673ffffffffffffffffffffffffffffffffffffffff1673ffffffffffffffffffffffffffffffffffffffff168152602001600682015481526020016007820154815260200160088201805480602002602001604051908101604052809291908181526020016000905b828210156116d357838290600052602060002090600502016040518060a001604052908160008201548152602001600182018054611514906123cf565b80601f0160208091040260200160405190810160405280929190818152602001828054611540906123cf565b801561158d5780601f106115625761010080835404028352916020019161158d565b820191906000526020600020905b81548152906001019060200180831161157057829003601f168201915b50505050508152602001600282015481526020016003820180546115b0906123cf565b80601f01602080910402602001604051908101604052809291908181526020018280546115dc906123cf565b80156116295780601f106115fe57610100808354040283529160200191611629565b820191906000526020600020905b81548152906001019060200180831161160c57829003601f168201915b50505050508152602001600482018054611642906123cf565b80601f016020809104026020016040519081016040528092919081815260200182805461166e906123cf565b80156116bb5780601f10611690576101008083540402835291602001916116bb565b820191906000526020600020905b81548152906001019060200180831161169e57829003601f168201915b505050505081525050815260200190600101906114d7565b5050505081525050815260200190600101906112a2565b50505050905090565b60026000540361172f576040517f3ee5aeb500000000000000000000000000000000000000000000000000000000815260040160405180910390fd5b6002600081905550565b6001600081905550565b61174b611890565b73ffffffffffffffffffffffffffffffffffffffff166117696111ce565b73ffffffffffffffffffffffffffffffffffffffff16146117c85761178c611890565b6040517f118cdaa70000000000000000000000000000000000000000000000000000000081526004016117bf91906120d1565b60405180910390fd5b565b6000600160009054906101000a900473ffffffffffffffffffffffffffffffffffffffff16905081600160006101000a81548173ffffffffffffffffffffffffffffffffffffffff021916908373ffffffffffffffffffffffffffffffffffffffff1602179055508173ffffffffffffffffffffffffffffffffffffffff168173ffffffffffffffffffffffffffffffffffffffff167f8be0079c531659141344cd1fd0a4f28419497f9722a3daafe3b4186f6b6457e060405160405180910390a35050565b600033905090565b8280548282559060005260206000209060050281019282156119325760005260206000209160050282015b8281111561193157828260008201548160000155600182018160010190816118eb9190612694565b50600282015481600201556003820181600301908161190a9190612694565b506004820181600401908161191f9190612694565b505050916005019190600501906118c3565b5b50905061193f9190611943565b5090565b5b8082111561199657600080820160009055600182016000611965919061199a565b600282016000905560038201600061197d919061199a565b60048201600061198d919061199a565b50600501611944565b5090565b5080546119a6906123cf565b6000825580601f106119b857506119d7565b601f0160209004906000526020600020908101906119d691906119da565b5b50565b5b808211156119f35760008160009055506001016119db565b5090565b6000604051905090565b600080fd5b600080fd5b6000819050919050565b611a1e81611a0b565b8114611a2957600080fd5b50565b600081359050611a3b81611a15565b92915050565b600060208284031215611a5757611a56611a01565b5b6000611a6584828501611a2c565b91505092915050565b600081519050919050565b600082825260208201905092915050565b6000819050602082019050919050565b611aa381611a0b565b82525050565b600081519050919050565b600082825260208201905092915050565b60005b83811015611ae3578082015181840152602081019050611ac8565b60008484015250505050565b6000601f19601f8301169050919050565b6000611b0b82611aa9565b611b158185611ab4565b9350611b25818560208601611ac5565b611b2e81611aef565b840191505092915050565b600060a083016000830151611b516000860182611a9a565b5060208301518482036020860152611b698282611b00565b9150506040830151611b7e6040860182611a9a565b5060608301518482036060860152611b968282611b00565b91505060808301518482036080860152611bb08282611b00565b9150508091505092915050565b6000611bc98383611b39565b905092915050565b6000602082019050919050565b6000611be982611a6e565b611bf38185611a79565b935083602082028501611c0585611a8a565b8060005b85811015611c415784840389528151611c228582611bbd565b9450611c2d83611bd1565b925060208a01995050600181019050611c09565b50829750879550505050505092915050565b60006020820190508181036000830152611c6d8184611bde565b905092915050565b611c7e81611a0b565b82525050565b600082825260208201905092915050565b6000611ca082611aa9565b611caa8185611c84565b9350611cba818560208601611ac5565b611cc381611aef565b840191505092915050565b60006fffffffffffffffffffffffffffffffff82169050919050565b611cf381611cce565b82525050565b600073ffffffffffffffffffffffffffffffffffffffff82169050919050565b6000611d2482611cf9565b9050919050565b611d3481611d19565b82525050565b600061010082019050611d50600083018b611c75565b8181036020830152611d62818a611c95565b9050611d716040830189611cea565b8181036060830152611d838188611c95565b9050611d926080830187611c75565b611d9f60a0830186611d2b565b611dac60c0830185611c75565b611db960e0830184611c75565b9998505050505050505050565b6000611dd182611cf9565b9050919050565b611de181611dc6565b82525050565b600060c0820190508181036000830152611e018189611c95565b9050611e106020830188611cea565b8181036040830152611e228187611c95565b9050611e316060830186611c75565b611e3e6080830185611dd8565b611e4b60a0830184611c75565b979650505050505050565b600080fd5b600080fd5b7f4e487b7100000000000000000000000000000000000000000000000000000000600052604160045260246000fd5b611e9882611aef565b810181811067ffffffffffffffff82111715611eb757611eb6611e60565b5b80604052505050565b6000611eca6119f7565b9050611ed68282611e8f565b919050565b600067ffffffffffffffff821115611ef657611ef5611e60565b5b611eff82611aef565b9050602081019050919050565b82818337600083830152505050565b6000611f2e611f2984611edb565b611ec0565b905082815260208101848484011115611f4a57611f49611e5b565b5b611f55848285611f0c565b509392505050565b600082601f830112611f7257611f71611e56565b5b8135611f82848260208601611f1b565b91505092915050565b600080600060608486031215611fa457611fa3611a01565b5b600084013567ffffffffffffffff811115611fc257611fc1611a06565b5b611fce86828701611f5d565b935050602084013567ffffffffffffffff811115611fef57611fee611a06565b5b611ffb86828701611f5d565b925050604061200c86828701611a2c565b9150509250925092565b600080600080608085870312156120305761202f611a01565b5b600061203e87828801611a2c565b945050602085013567ffffffffffffffff81111561205f5761205e611a06565b5b61206b87828801611f5d565b935050604085013567ffffffffffffffff81111561208c5761208b611a06565b5b61209887828801611f5d565b925050606085013567ffffffffffffffff8111156120b9576120b8611a06565b5b6120c587828801611f5d565b91505092959194509250565b60006020820190506120e66000830184611dd8565b92915050565b6120f581611dc6565b811461210057600080fd5b50565b600081359050612112816120ec565b92915050565b60006020828403121561212e5761212d611a01565b5b600061213c84828501612103565b91505092915050565b600081519050919050565b600082825260208201905092915050565b6000819050602082019050919050565b61217a81611cce565b82525050565b61218981611d19565b82525050565b600082825260208201905092915050565b60006121ab82611a6e565b6121b5818561218f565b9350836020820285016121c785611a8a565b8060005b8581101561220357848403895281516121e48582611bbd565b94506121ef83611bd1565b925060208a019950506001810190506121cb565b50829750879550505050505092915050565b60006101208301600083015161222e6000860182611a9a565b50602083015184820360208601526122468282611b00565b915050604083015161225b6040860182612171565b50606083015184820360608601526122738282611b00565b91505060808301516122886080860182611a9a565b5060a083015161229b60a0860182612180565b5060c08301516122ae60c0860182611a9a565b5060e08301516122c160e0860182611a9a565b506101008301518482036101008601526122db82826121a0565b9150508091505092915050565b60006122f48383612215565b905092915050565b6000602082019050919050565b600061231482612145565b61231e8185612150565b93508360208202850161233085612161565b8060005b8581101561236c578484038952815161234d85826122e8565b9450612358836122fc565b925060208a01995050600181019050612334565b50829750879550505050505092915050565b600060208201905081810360008301526123988184612309565b905092915050565b7f4e487b7100000000000000000000000000000000000000000000000000000000600052602260045260246000fd5b600060028204905060018216806123e757607f821691505b6020821081036123fa576123f96123a0565b5b50919050565b60008190508160005260206000209050919050565b60006020601f8301049050919050565b600082821b905092915050565b6000600883026124627fffffffffffffffffffffffffffffffffffffffffffffffffffffffffffffffff82612425565b61246c8683612425565b95508019841693508086168417925050509392505050565b6000819050919050565b60006124a96124a461249f84611a0b565b612484565b611a0b565b9050919050565b6000819050919050565b6124c38361248e565b6124d76124cf826124b0565b848454612432565b825550505050565b600090565b6124ec6124df565b6124f78184846124ba565b505050565b5b8181101561251b576125106000826124e4565b6001810190506124fd565b5050565b601f8211156125605761253181612400565b61253a84612415565b81016020851015612549578190505b61255d61255585612415565b8301826124fc565b50505b505050565b600082821c905092915050565b600061258360001984600802612565565b1980831691505092915050565b600061259c8383612572565b9150826002028217905092915050565b6125b582611aa9565b67ffffffffffffffff8111156125ce576125cd611e60565b5b6125d882546123cf565b6125e382828561251f565b600060209050601f8311600181146126165760008415612604578287015190505b61260e8582612590565b865550612676565b601f19841661262486612400565b60005b8281101561264c57848901518255600182019150602085019450602081019050612627565b868310156126695784890151612665601f891682612572565b8355505b6001600288020188555050505b505050505050565b60008154905061268d816123cf565b9050919050565b8181036126a257505061277a565b6126ab8261267e565b67ffffffffffffffff8111156126c4576126c3611e60565b5b6126ce82546123cf565b6126d982828561251f565b6000601f83116001811461270857600084156126f6578287015490505b6127008582612590565b865550612773565b601f19841661271687612400565b965061272186612400565b60005b8281101561274957848901548255600182019150600185019450602081019050612724565b868310156127665784890154612762601f891682612572565b8355505b6001600288020188555050505b5050505050505b565b600060408201905081810360008301526127968185611c95565b90506127a56020830184611dd8565b9392505050565b7f4f6e6c7920726f6f6d206f776e65722063616e20616464206172740000000000600082015250565b60006127e2601b83611c84565b91506127ed826127ac565b602082019050919050565b60006020820190508181036000830152612811816127d5565b9050919050565b7f4e487b7100000000000000000000000000000000000000000000000000000000600052601160045260246000fd5b600061285282611a0b565b915061285d83611a0b565b925082820190508082111561287557612874612818565b5b92915050565b60006040820190506128906000830185611c75565b81810360208301526128a28184611c95565b90509392505050565b7f496e636f727265637420656e7472792066656500000000000000000000000000600082015250565b60006128e1601383611c84565b91506128ec826128ab565b602082019050919050565b60006020820190508181036000830152612910816128d4565b9050919050565b600061292282611cce565b915061292d83611cce565b925082820190506fffffffffffffffffffffffffffffffff81111561295557612954612818565b5b92915050565b7f4f6e6c792074686520726f6f6d206f776e65722063616e20776974686472617760008201527f206561726e696e67730000000000000000000000000000000000000000000000602082015250565b60006129b7602983611c84565b91506129c28261295b565b604082019050919050565b600060208201905081810360008301526129e6816129aa565b9050919050565b7f4e6f206561726e696e677320746f207769746864726177000000000000000000600082015250565b6000612a23601783611c84565b9150612a2e826129ed565b602082019050919050565b60006020820190508181036000830152612a5281612a16565b9050919050565b600081905092915050565b50565b6000612a74600083612a59565b9150612a7f82612a64565b600082019050919050565b6000612a9582612a67565b9150819050919050565b7f5472616e73666572206661696c65640000000000000000000000000000000000600082015250565b6000612ad5600f83611c84565b9150612ae082612a9f565b602082019050919050565b60006020820190508181036000830152612b0481612ac8565b9050919050565b6000604082019050612b206000830185611dd8565b612b2d6020830184611c75565b939250505056fea26469706673582212206c07c8336378adc591f6430ca9783f18d4922db4653ff55e5b771a935a3a797464736f6c63430008180033",
  "linkReferences": {},
  "deployedLinkReferences": {}
}